:020000040000FA
:100000000A128A11DC2F7E088A007F0882000A12F9
:100010008A1103200A128A118000840A04087D06CE
:1000200003190034FF0A0319FE0A07288312031379
:1000300046088039C7004708D0004608C700470770
:10004000C8004808D700C51F262827282828571485
:10005000570803192C282D283D28570A031D31283D
:1000600032283A280030C6000030C5000030C400F5
:100070000030C300C517C60145280030C600003057
:10008000C5000030C4000030C30042088039C700FA
:100090004708D0064208C7004707C8004808D800EC
:1000A000C11F532854285528581458080319592893
:1000B0005A286A28580A031D5E285F2867280030DE
:1000C000C2000030C1000030C0000030BF00C117C6
:1000D000C20172280030C2000030C1000030C000F0
:1000E0000030BF004208410440043F04031D79284A
:1000F0007A2893280030C6000030C5000030C400C4
:100100000030C3008030C5047F30C6045008C700EB
:100110004708C6044608C2004508C1004408C0009C
:100120004308BF00F2295708031D97289828A128E3
:100130000030C2000030C1000030C0000030BF00FD
:10014000F2295708C700C8014808CA0058084702E2
:10015000C900031CCA0349087F3ED1004A0803189E
:10016000013E003ED2004608CF004508CE004408BC
:10017000CD004308CC000030C6000030C500003080
:10018000C4000030C3000030D6000030D50000307D
:10019000D4000030D300D801172958080319D128FA
:1001A000D228F2280130C7000310CC0DCD0DCE0DA2
:1001B000CF0DC70BD4280130C7000310C30DC40DE9
:1001C000C50DC60DC70BDD28D61FE728E828E9288E
:1001D00043140130C7000310D30DD40DD50DD60D37
:1001E000C70BEB2842084F02031D002941084E02AD
:1001F000031D002940084D02031D00293F084C0241
:10020000031C03290429132956173F08CC02400870
:10021000031C400FCD024108031C410FCE024208CF
:10022000031C420FCF020130C7004708D8071A301D
:100230005802031C1C291D29CD284F084E044D04CB
:100240004C04031924292529442953144429013035
:10025000C7000310C30DC40DC50DC60DC70B29295A
:10026000D61F33293429352943140130C700031020
:10027000D30DD40DD50DD60DC70B3729FF30D107BF
:100280000318D20AFF30D207C51F4729482927295A
:10029000D801D61F4C294D296929FF305305C700C5
:1002A000FF305405C800FF305505C9007F305605A2
:1002B000CA004A084904480447040319602961290F
:1002C0006429D801D80A6929431C67296829692942
:1002D0006129580803196D296E299F290130C30728
:1002E000003003180130C407003003180130C5077F
:1002F000003003180130C607461C7F2980299F293A
:100300004308C7004408C8004508C9004608CA0099
:100310000130CB004A0DCA0CC90CC80CC70CCB0B62
:100320008A294A08C6004908C5004808C400470889
:10033000C3000130D1070318D20A0030D207520897
:10034000803AFF0080307F02031DA829FF30510250
:10035000031CAB29AC29BA29FF3083120313D10047
:100360000030D2000030C6000030C5000030C400AC
:100370000030C300831203135208803AFF0080301C
:100380007F02031DC529013051020318C829C9295C
:10039000D62983120313D101D2010030C6000030E8
:1003A000C5000030C4000030C300D0018312031325
:1003B0005108C7004708D700571CDF29E029E22968
:1003C000C517E6297F30C7004708C5055708C7008D
:1003D0000310470CC8004808C6005008C70047086B
:1003E000C6048A280800831203135C088039E100E0
:1003F0006108E9005C08E1006107E2006208EB00C7
:10040000DB1F032A042A052A6B146B080319092A27
:100410000A2A1A2A6B0A031D0E2A0F2A172A0030ED
:10042000DC000030DB000030DA000030D900DB17E0
:10043000DC01222A0030DC000030DB000030DA0072
:100440000030D90060088039E1006108EA006A08DC
:10045000690603192C2A2D2A2E2A69176008E10043
:100460006107E2006208EA00DF1F372A382A392ACA
:100470006A146A0803193D2A3E2A4E2A6A0A031D95
:10048000422A432A4B2A0030E0000030DF000030CF
:10049000DE000030DD00DF17E001562A0030E0000A
:1004A0000030DF000030DE000030DD006B086A0243
:1004B00003185B2A5C2AA02A691F5F2A602A642A23
:1004C0008030E1006108E9066B08E1006108EC009A
:1004D0006A08E1006108EB006C08E1006108EA00CD
:1004E0005908E1006108EC005D08E1006108D900ED
:1004F0006C08E1006108DD005A08E1006108EC00C9
:100500005E08E1006108DA006C08E1006108DE00C5
:100510005B08E1006108EC005F08E1006108DB00B6
:100520006C08E1006108DF005C08E1006108EC0094
:100530006008E1006108DC006C08E1006108E0008F
:10054000EC016A08E100E2016208E4006B08610264
:10055000E300031CE4036408803AFF0080307F025C
:10056000031DB42A1A306302031CB72AB82AF52ADD
:10057000831203135C085B045A045904031DC12A47
:10058000C32A0130C42A0030E1006108EC000030C9
:10059000DC000030DB000030DA000030D9006A08EF
:1005A000E1006108EB00FD2A6C1CD72AD82AE12A59
:1005B0006C08E1000310610C0138E2006208EC00F5
:1005C000E32A0310EC0C591CE62AE72AE82AEC1768
:1005D0000130E1005C0DDC0CDB0CDA0CD90CE10B1A
:1005E000EA2A0130E1006108EB07831203136A086D
:1005F0006B02031CFC2AFD2AD42A691B002B012B49
:100600004C2B6B08031D052B062B0F2B0030DC0039
:100610000030DB000030DA000030D9007A2C5D08B1
:10062000D9075E0803110318013E0319182BDA07D6
:100630005F0803110318013E03191F2BDB07600835
:1006400003110318013E0319262BDC075C1C292B20
:100650002A2B002C6C1C2D2B2E2B372B6C08E10029
:100660000310610C0138E2006208EC00392B031022
:10067000EC0C591C3C2B3D2B3E2BEC170130E100C0
:100680005C0DDC0CDB0CDA0CD90CE10B402B0130DF
:10069000E1006108EB07002C5C08803AFF0060086D
:1006A000803A7F02031D5E2B5F085B02031D5E2BF9
:1006B0005E085A02031D5E2B5D0859020318612B68
:1006C000622BBA2BFF30E100FF30E200FF30E30085
:1006D000FF30E4005D08E5005E08E6005F08E70023
:1006E0006008E8005908E5025A08031C5A0F792BE4
:1006F0007A2BE6025B08031C5B0F7F2B802BE70243
:100700005C08031C5C0F852B862BE8026508E1075B
:1007100066080318660F8D2B8E2BE20767080318F7
:10072000670F932B942BE30768080318680AE40704
:100730006408DC006308DB006208DA006108D900A5
:100740008030E1006108E906EC09EC0A6C08031D41
:10075000AA2BAB2BC82B0130D9070030031801306E
:10076000DA07003003180130DB07003003180130CE
:10077000DC07C82B5D08D9025E08031C5E0FDA0295
:100780005F08031C5F0FDB026008031C600FDC02C4
:100790005C085B045A045904031DCF2BD02BFC2B9F
:1007A0006C08031DD42BD52BFC2B0030DC00003053
:1007B000DB000030DA000030D9007A2C0130E10093
:1007C0000310D90DDA0DDB0DDC0DE10BE02BEC1F76
:1007D000EA2BEB2BEC2B59146C1CEF2BF02BF32B8F
:1007E0000314EC0DF52B0310EC0D6B080319F92B1A
:1007F000FA2BFC2B0130EB02DB1FFF2B002CDE2B36
:10080000EA01EC1F042C052C132C6C087F3903190A
:100810000A2C0B2C0E2CEA01EA0A132C591C112C61
:10082000122C132C0B2C6A080319172C182C4C2C87
:100830000130D907003003180130DA0700300318FF
:100840000130DB07003003180130DC075C1C292C69
:100850002A2C4C2C5908E1005A08E2005B08E300FE
:100860005C08E4000130E500640DE40CE30CE20CEC
:10087000E10CE50B342C6408DC006308DB00620843
:10088000DA006108D9006B0A0319472C482C4C2C5C
:100890000130E1006108EB076B0A0319502C512C61
:1008A000562C6B08031D552C562C642C0030DC0094
:1008B0000030DB000030DA000030D9006B08031D87
:1008C000622C632C642CE9016B1C672C682C6A2C4D
:1008D000DB176E2C7F30E1006108DB056B08E1005F
:1008E0000310610CE2006208DC00E91F782C792C0F
:1008F0007A2CDC1708008312031328088039AD0016
:100900002D08B2002808AD002D07AE002E08B80053
:10091000A71F8B2C8C2C8D2C381438080319912C84
:10092000922CA12C380A031D962C972C9F2C00305A
:10093000A8000030A7000030A6000030A500A717CF
:10094000A92C0030A8000030A7000030A60000301D
:10095000A5002C088039AD002D08B2062C08AD008A
:100960002D07AE002E08B700AB1FB72CB82CB92C42
:10097000371437080319BD2CBE2CCD2C370A031DA4
:10098000C22CC32CCB2C0030AC000030AB000030AC
:10099000AA000030A900AB17D52C0030AC00003005
:1009A000AB000030AA000030A90037080319D92C89
:1009B000DA2CDF2C3808031DDE2CDF2CE82C00306D
:1009C000A8000030A7000030A6000030A500DB2FF3
:1009D0002508AD002D08F0002B080A168A11AB225D
:1009E0000A128A11710883120313BE007008BD0039
:1009F0003D08AD00AE01AF01B0013008B6002F08D0
:100A0000B5002E08B4002D08B3003E08AD00AE01BD
:100A1000AF01B0013008BC002F08BB002E08BA009F
:100A20002D08B9002608AD002D08F0002A080A1686
:100A30008A11AB220A128A11710883120313BE00B5
:100A40007008BD003D08AD00AE01AF01B0012D083A
:100A5000B3072E0803110318013E0319302DB40704
:100A60002F0803110318013E0319372DB50730086D
:100A700003110318013E03193E2DB6073E08AD00D1
:100A8000AE01AF01B0012D08B9072E0803110318FC
:100A9000013E03194C2DBA072F0803110318013E1C
:100AA0000319532DBB07300803110318013E031926
:100AB0005A2DBC072708AD002D08F00029080A169A
:100AC0008A11AB220A128A11710883120313BE0025
:100AD0007008BD003D08AD00AE01AF01B0012D08AA
:100AE000B3072E0803110318013E0319782DB4072C
:100AF0002F0803110318013E03197F2DB507300895
:100B000003110318013E0319862DB6073E08AD00F8
:100B1000AE01AF01B0012D08B9072E08031103186B
:100B2000013E0319942DBA072F0803110318013E43
:100B300003199B2DBB07300803110318013E03194D
:100B4000A22DBC070830AD000310B30DB40DB50DD8
:100B5000B60DAD0BA42D2608AD002D08F000290818
:100B60000A168A11AB220A128A1171088312031322
:100B7000BE007008BD003D08AD003E08AE00AF01EC
:100B8000B0012D08B3072E0803110318013E031905
:100B9000CA2DB4072F0803110318013E0319D12DE4
:100BA000B507300803110318013E0319D82DB60705
:100BB0002508AD002D08F0002A080A168A11AB227C
:100BC0000A128A11710883120313BE007008BD0057
:100BD0003D08AD003E08AE00AF01B0012D08B307DF
:100BE0002E0803110318013E0319F72DB4072F082F
:100BF00003110318013E0319FE2DB5073008031138
:100C00000318013E0319052EB6070830AD00031086
:100C1000B30DB40DB50DB60DAD0B072E2508AD0007
:100C20002D08F00029080A168A11AB220A128A112F
:100C3000710883120313BE007008BD003D08AD00AB
:100C40003E08AE00AF01B0012D08B3072E08031116
:100C50000318013E03192D2EB4072F0803110318A2
:100C6000013E0319342EB507300803110318013E65
:100C700003193B2EB6072608AD002D08F0002B08FF
:100C80000A168A11AB220A128A1171088312031301
:100C9000BE007008BD003D08AD003E08AE00AF01CB
:100CA000B0012D08B9072E0803110318013E0319DE
:100CB0005A2EBA072F0803110318013E0319612E9B
:100CC000BB07300803110318013E0319682EBC0747
:100CD0002708AD002D08F0002A080A168A11AB2259
:100CE0000A128A11710883120313BE007008BD0036
:100CF0003D08AD003E08AE00AF01B0012D08B907B8
:100D00002E0803110318013E0319872EBA072F0876
:100D100003110318013E03198E2EBB07300803117F
:100D20000318013E0319952EBC072708AD002D08B6
:100D3000F0002B080A168A11AB220A128A117108D8
:100D400083120313BE007008BD003D08AD003E08CD
:100D5000AE00AF01B00108300310AD0DAE0DAF0D08
:100D6000B00DFF3E031DAC2E2D08B9072E08031150
:100D70000318013E0319BD2EBA072F0803110318EB
:100D8000013E0319C42EBB07300803110318013EAE
:100D90000319CB2EBC073308AD003408AE0035086C
:100DA000AF003608B00018300310B00CAF0CAE0C1A
:100DB000AD0CFF3E031DD42E2D08B9072E080311DC
:100DC0000318013E0319E52EBA072F080311031873
:100DD000013E0319EC2EBB07300803110318013E36
:100DE0000319F32EBC070830AD000310B30DB40D8A
:100DF000B50DB60DAD0BF52E38083707AD00AE01B9
:100E0000AE0D2D08823EBD002E080318013EFF3EA8
:100E1000BE00272F0130AD000310B90DBA0DBB0D78
:100E2000BC0DAD0B0C2FB61F162F172F182F391412
:100E30000130AD000310B30DB40DB50DB60DAD0B03
:100E40001A2FFF30BD070318BE0AFF30BE07BB1FB5
:100E50002A2F2B2F0A2FB701B61F2F2F302F4C2FE1
:100E6000FF303305AD00FF303405AE00FF303505EF
:100E7000AF007F303605B00030082F042E042D045B
:100E80000319432F442F472FB701B70A4C2F391CA2
:100E90004A2F4B2F4C2F442F37080319502F512F17
:100EA000822F0130B907003003180130BA07003033
:100EB00003180130BB07003003180130BC073C1C8D
:100EC000622F632F822F3908AD003A08AE003B082D
:100ED000AF003C08B0000130B100300DB00CAF0CD9
:100EE000AE0CAD0CB10B6D2F3008BC002F08BB0051
:100EF0002E08BA002D08B9000130BD070318BE0A3C
:100F00000030BE073E08803AFF0080307F02031D9C
:100F10008B2FFF303D02031C8E2F8F2F9A2F7F3097
:100F200083120313BC008030BB000030BA000030D5
:100F3000B900CF2F831203133E08803AFF008030A0
:100F40007F02031DA52F01303D020318A82FA92FF2
:100F5000B52F003083120313BC000030BB000030FB
:100F6000BA000030B900B201CF2F831203133D083D
:100F7000AD002D08B800FF30B905FF30BA057F304D
:100F8000BB050030BC05381CC62FC72FC82FBB17A8
:100F90003808AD0003102D0CAE002E08BC0032083E
:100FA000AD002D08BC043C08A8003B08A7003A0887
:100FB000A6003908A50008008317C830FD001230CC
:100FC000FE003430FF00B83084000A128A11072076
:100FD0000A128A1190308400B8300A168A110D2244
:100FE0000A128A118313DD308400ED300A168A114B
:100FF0000D220A128A11EE0183010A168A110A2EA5
:10100200831603139F171F129F12831203131F08C5
:101012003F3940389F0008000330831603136602ED
:1010220003181428152885280A168A1124220A1260
:101032008A150030831203138718013083160313B5
:10104200EA000030831203130718013083160313DA
:10105200E9000030831203130719013083160313CA
:10106200E800473083120313B3003308A00083164D
:1010720003136A0883120313B400B5013408A100F4
:101082003508A20083160313690883120313B600FE
:10109200B7013608A3003708A400831603136808B3
:1010A20083120313B800B9013808A5003908A60055
:1010B200A1300A128A1548220A128A15F501A130B6
:1010C200F6000130F70000300A168A11FC220A12DB
:1010D2008A15013083120313B300330883160313F6
:1010E200E60783120313EE01EE0A0B308312031399
:1010F200B5002630B4005D30B300B30B7E28B40BCC
:101102007E28B50B7E288C28E60104308312031357
:10111200B3003308EE000800831603132508A70066
:1011220001300310A70DFF3E031D92280310270D67
:10113200240784000A168A110A200A128A15A800B6
:101142000A168A110A200A128A15A9000A168A1199
:101152000A200A128A15AA000A168A110A200A12FD
:101162008A15AB002B08AF002A08AE002908AD0093
:101172002808AC005829FF30A5070318A60AFF303B
:10118200A6072508A70001300310A70DFF3E031D87
:10119200C5280310270D240784000A168A110A2085
:1011A2000A128A15A8000A168A110A200A128A153A
:1011B200A9000A168A110A200A128A15AA000A161A
:1011C2008A110A200A128A15AB002B088312031314
:1011D200DC00831603132A0883120313DB00831631
:1011E2000313290883120313DA0083160313280852
:1011F20083120313D900831603132F0883120313D8
:10120200A800831603132E0883120313A700831664
:1012120003132D0883120313A600831603132C084D
:1012220083120313A50083160313230883120313E7
:10123200AC0083160313220883120313AB00831638
:101242000313210883120313AA0083160313200831
:1012520083120313A9000A128A117B240A128A1527
:10126200831203132808E0002708DF002608DE00A7
:101272002508DD000A128A11F3210A128A15831247
:1012820003135C0883160313AF00831203135B0876
:1012920083160313AE00831203135A088316031333
:1012A200AD0083120313590883160313AC002508FB
:1012B2002604031D5D295E29BC282F08A3002E08E1
:1012C200A2002D08A1002C08A00008008316031319
:1012D200EC01F001F10100300A168A1144220A12CF
:1012E2008A150330831603136702031879297A29B2
:1012F200412A0A168A1124220A128A15F501963009
:10130200F6008030F70000300A168A11FC220A1219
:101312008A15C0300A168A1157230A128A150A1230
:101322008A1548230A128A15FB007B0883120313CD
:10133200B300330803199E299F29B5292A300A16BA
:101342008A118D230A128A15831203133308FB00B4
:10135200831603136C08B23E84007B088317800057
:101362000130FB007B08EC070230FD000430FC007A
:10137200BA30FB00FB0BBB29FC0BBB29FD0BBB29C5
:1013820000000530831603136C02031CC929CA2905
:1013920090292F30FB007B08F0000430F100003070
:1013A200F200B2300A168A1141240A128A15700814
:1013B2007104031DDD29DE29142A0A168A1124224A
:1013C2000A128A15F5016A30F6008030F700003003
:1013D2000A168A11FC220A128A15F001F00AF1019A
:1013E20000300A168A1144220A128A158316031340
:1013F200E7011530FD004B30FC00BE30FB00FB0B5B
:10140200002AFC0B002AFD0B002A0000F001F1016A
:1014120000300A168A1144220A128A158312031313
:10142200EE01EE0A472A0A168A1124220A128A15A6
:10143200F5015930F6008030F70000300A168A11A3
:10144200FC220A128A15F001F101F10A00300A1693
:101452008A1144220A128A150130FB007B08831686
:101462000313E7070930FD001E30FC00E430FB00E7
:10147200FB0B392AFC0B392AFD0B392A0000472ABB
:101482000230FB007B0883120313EE000800831274
:101492000313B100AC01AD012130A7002708AA0057
:1014A2002D2B253032060319572A582A6A2A320868
:1014B200A700310884002708831780000130A700A5
:1014C2002708B1070130AC070318AD0A0030AD0799
:1014D2002D2BAB010130A007FF30200784000A1634
:1014E2008A110A200A128A15B200A700A801280848
:1014F200003A03197D2A2D2B2708003A03193F2BA6
:10150200643A0319882A0D3A0319882A2D2B2A08CE
:10151200840083130008AF00840A0008B000023080
:10152200A7002708AA07B01F972A982AA12A0330E2
:10153200A7002708AB04AF09B009AF0A0319B00A24
:10154200B201B20A3208A7002707013E84000A1638
:101552008A110A200A128A15A8000A168A110A207C
:101562000A128A15A90029083002031DBA2A28087E
:101572002F020318BD2ABE2ABF2AC92A0130A7009A
:101582002708B20705303206031DC82AC92AA32A32
:101592002B0803390319CE2ACF2AE02A2D30A700BF
:1015A200310884002708831780000130A70027082C
:1015B200B1070130AC070318AD0A0030AD0732089D
:1015C200A7002708AE00242B0A30F8000030F900EB
:1015D2002E08A7002707013E84000A168A110A2056
:1015E2000A128A15F0000A168A110A200A128A15AE
:1015F200F1003008F3002F08F2000A168A11FD23C9
:101602000A128A157108FB007008FA000A168A117C
:10161200C3230A128A157808303E83120313A800E6
:101622002808B2003208A70031088400270883176F
:1016320080000130A7002708B1070130AC0703186A
:10164200AD0A0030AD07FF30A7002708AE072E0A0B
:10165200031D2C2B2D2BE52A0130A007FF3020077C
:1016620084000A168A110A200A128A15A70027087E
:10167200B2003208031D3E2B3F2B522A3108840050
:10168200831780012D08A1002C08A000080020303B
:101692008400B830F0000408F1001030F200700845
:1016A200840083170008F300F00A71088400831392
:1016B20073088000F10AF20B502B83120313B0015E
:1016C200B101B2018312031331083204031D6A2BE4
:1016D2006B2B982BFE3086004230F000F00B6F2B04
:1016E2000000772B2008F0007008B000831203136B
:1016F200061E7C2B7D2B732B822B2108F000700899
:10170200B000861E852B862B7E2B8B2B2208F000A9
:101712007008B000061F8E2B8F2B872B942B23086B
:10172200F0007008B000861F972B982B902B310386
:101732003204031D9D2B9E2BCB2BFD3086004230A5
:10174200F000F00BA22B0000AA2B2408F000700876
:10175200B00083120313061EAF2BB02BA62BB52BA2
:101762002508F0007008B000861EB82BB92BB12BEB
:10177200BE2B2608F0007008B000061FC12BC22B3A
:10178200BA2BC72B2708F0007008B000861FCA2B9F
:10179200CB2BC32B023031063204031DD12BD22BAB
:1017A200FF2BFB3086004230F000F00BD62B0000FE
:1017B200DE2B2808F0007008B00083120313061E07
:1017C200E32BE42BDA2BE92B2908F0007008B00098
:1017D200861EEC2BED2BE52BF22B2A08F00070086D
:1017E200B000061FF52BF62BEE2BFB2B2B08F0007F
:1017F2007008B000861FFE2BFF2BF72B033031063B
:101802003204031D052C062C332CF730860042309F
:10181200F000F00B0A2C0000122C2C08F0007008CB
:10182200B00083120313061E172C182C0E2C1D2C2D
:101832002D08F0007008B000861E202C212C192CD7
:10184200262C2E08F0007008B000061F292C2A2C26
:10185200222C2F2C2F08F0007008B000861F322C8B
:10186200332C2B2C0130B1070318B20A0030B20717
:101872003208803AFF0080307F02031D422C043080
:101882003102031C452C462C632B831203133008B0
:101892000800831603133308F3003208F2003108FC
:1018A200F1003008F0000030F7000030F6000030A0
:1018B200F5000030F4000A168A11A4260A128A15CD
:1018C2000318642C652C742C213083160313DD005D
:1018D2000030DE000030B3000030B2000030B10052
:1018E2000030B000952D831603133308F30032083D
:1018F200F2003108F1003008F0000030F70000304B
:10190200F6000030F5000030F4000A168A11872430
:101912000A128A15031C8E2C8F2C9E2C22308316C1
:101922000313DD000030DE000030B3000030B200EF
:101932000030B1000030B000952DBF308312031388
:10194200DC008030DB000030DA000030D9004030AB
:10195200A8000030A7000030A6000030A500B43077
:10196200ED006D08A40083160313330883120313DA
:10197200A30083160313320883120313A2008316F3
:101982000313310883120313A100831603133008D3
:1019920083120313A0000A168A11D5240A128A158B
:1019A200831203132308AC002208AB002108AA000B
:1019B2002008A9000A128A117B240A128A158312AE
:1019C20003132808E0002708DF002608DE002508A8
:1019D200DD000A128A11F3210A128A1583120313F7
:1019E2005C0883160313B300831203135B08831688
:1019F2000313B200831203135A0883160313B100B0
:101A020083120313590883160313B000FF30B4077F
:101A12000318B50AFF30B5073308A3003208A20045
:101A22003108A1003008A0000B3083120313ED002F
:101A32006D0883160313A4000830A5000030A60029
:101A42000A128A158D200A128A1583160313230897
:101A5200B3002208B2002108B1002008B000330808
:101A620083120313DC008316031332088312031359
:101A7200DB0083160313310883120313DA00831683
:101A82000313300883120313D9003F30A80031300A
:101A9200A7007230A6001830A5008316031334087D
:101AA200F0003508F1000030F11BFF30F200F300C6
:101AB20001300A168A1146270A128A157308831200
:101AC2000313AC007208AB007108AA007008A900E9
:101AD2000A128A117B240A128A1583120313280818
:101AE200E0002708DF002608DE002508DD000A12D4
:101AF2008A11F3210A128A15831203135C088316D2
:101B02000313B300831203135B0883160313B2009B
:101B1200831203135A0883160313B10083120313AB
:101B2200590883160313B000080003308316031309
:101B3200650203189D2D9E2DFA2F0030F000F10052
:101B42000A168A1164220A128A157108831603136F
:101B5200E4007008E3004E3083160313C200EA303B
:101B6200C100C10BB22DC20BB22D0000FF30831693
:101B72000313C1000330C20063084102C4006408B9
:101B8200031C640A4202C500C601C51BC6034608FF
:101B9200C700463083120313C6002030C500283028
:101BA200C4000030C300831603134708F30046083D
:101BB200F2004508F1004408F00001300A168A11CB
:101BC20046270A128A15730883120313C200720889
:101BD200C1007108C0007008BF000A128A111620E5
:101BE2000A128A15831203134208E0004108DF003B
:101BF2004008DE003F08DD00C130DC002030DB00A1
:101C02000030DA000030D9000A128A11F3210A12D8
:101C12008A15831203135C0883160313CB00831205
:101C220003135B0883160313CA00831203135A08B3
:101C320083160313C900831203135908831603136F
:101C4200C8004B0883120313C600831603134A0805
:101C520083120313C5008316031349088312031367
:101C6200C40083160313480883120313C3004130D0
:101C7200C2002030C1000030C0000030BF000A1294
:101C82008A1116200A128A15831203134208831638
:101C92000313B30083120313410883160313B20024
:101CA20083120313400883160313B1008312031334
:101CB2003F0883160313B0000A128A154A240A1237
:101CC2008A15831603133308CF003208CE00310879
:101CD200CD003008CC00453083120313C6007F309C
:101CE200C500A030C4000030C300831603134F08A0
:101CF20083120313E000831603134E0883120313A7
:101D0200DF00831603134D0883120313DE008316CC
:101D120003134C0883120313DD004130DC005B30F7
:101D2200DB009830DA00EA30D9000A128A11F32176
:101D32000A128A15831203135C08C2005B08C100F1
:101D42005A08C0005908BF000A128A1116200A1246
:101D52008A1583120313420883160313D3008312D6
:101D62000313410883160313D2008312031340089E
:101D720083160313D100831203133F088316031340
:101D8200D000530883120313E00083160313520892
:101D920083120313DF008316031351088312031304
:101DA200DE0083160313500883120313DD00C330D1
:101DB200DC008830DB008030DA000030D9000A1203
:101DC2008A11F3210A128A15831203135C088316FF
:101DD2000313D700831203135B0883160313D60081
:101DE200831203135A0883160313D50083120313B5
:101DF200590883160313D400570883120313E00013
:101E020083160313560883120313DF00831603138A
:101E1200550883120313DE0083160313540883123A
:101E22000313DD004230DC001030DB000030DA004A
:101E32000030D9000A128A11F3210A128A1583127C
:101E420003135C0883160313B900831203135B08A0
:101E520083160313B800831203135A08831603135D
:101E6200B70083120313590883160313B6000A1628
:101E72008A118E250A128A15831603133708D90090
:101E82003608D8000130F0000030F1000A168A113D
:101E920064220A128A15710883160313E20070087D
:101EA200E1004E3083160313C200EA30C100C10BB9
:101EB200582FC20B582F00000430F0000030F10000
:101EC2000A168A1164220A128A15710883160313EC
:101ED200E0007008DF004E3083160313C200EA30C0
:101EE200C100C10B722FC20B722F00000A168A1199
:101EF20024220A128A15353083160313C1004108C1
:101F020083120313A00083160313590883120313C9
:101F1200A20083160313580883120313A100831629
:101F22000313620883120313A400831603136108C8
:101F320083120313A300831603136008831203138F
:101F4200A600831603135F0883120313A500A130B2
:101F52000A128A1548220A128A15F501A130F600E2
:101F62000130F70000300A168A11FC220A128A1583
:101F7200831603135908803AFF0080307F02031D45
:101F8200C42F1F305802031CC72FC82FDF2F831600
:101F92000313E5011A3083160313C200F730C100A0
:101FA200C10BD12FC20BD12FD62F033083160313AF
:101FB200C100410883120313EE00FF2F0130831684
:101FC2000313C1004108E5070430C1004108831230
:101FD2000313EE000B3083160313C3002630C20036
:101FE2005D30C100C10BF32FC20BF32FC30BF32FD4
:101FF200FF2FE50183120313EE01EE0A0800FF1B17
:102002000A2883137F1883170008840A0319FF0A1A
:10201200080010308A000408840A82070034013460
:1020220000340A34003464340034E83403341034A5
:1020320027340034003400340034C434FF347F3495
:102042003F348034EF34FF34BE349034E134A93469
:102052003E34EC3482347634BE348234AD342B34A4
:102062003E340E343C34C334BD348734D13413345B
:102072003D3441347834D334BB34323430343234A6
:1020820033343934003454343D3425346434203408
:10209200503468343D3425346434203446346C344E
:1020A2003D342034253464340034693472343D3490
:1020B20025346434203468346C343D34253464343B
:1020C20020346D3474343D34253464340034433464
:1020D2006C34613476346534203449346E3463347C
:1020E2006F3472347234653463347434613400345E
:1020F20043346C34613476346534203443346F3481
:10210200723472346534633474346134003441346B
:102112006C346534723474346134203449346E342E
:1021220074347234753473346F3400345334693414
:102132007334203442346C346F3471347534653402
:10214200613464346F34003464346934673469341C
:1021520074346534203463346C34613476346534D9
:10216200003449346E34743465346E3474346F34EC
:0821720020343134353400340F
:10241200831603138901080064008001840A0406FC
:102422000319003404060E2AF030F00070088316F7
:1024320003138605F030F0007008860481138316BA
:1024420003178901080001300A168A1157230A1658
:102452008A110830F400C930F300F30B2E2AF40B72
:102462002E2A332A0800313432343334413434349E
:1024720035343634423437343834393443342A34F8
:10248200303423344434F2007218482A4C2A83121E
:10249200031309144F2A8312031309107018522AC6
:1024A200562A831203138914592A8312031389109B
:1024B20071185C2A602A831203130915632A831296
:1024C20003130911080070080F39F200F20DF20D22
:1024D200831203131F087206C33972069F001F146A
:1024E2001330F200F20B732A762A831203139F141D
:1024F2009F187C2A7D2A792A1F101E08F100831654
:1025020003131E08F00008009A2A7408FF007308DB
:1025120084000A168A1100200A168A110A168A11E4
:102522008D230A168A110130F3070318F40A0030CA
:10253200F407740883120313FF00730884000A1659
:102542008A1100200A168A11003A031DA92AAA2A12
:10255200862A0800F800F401F5017008F200F30180
:102562007208F6007308F700781CB82AB92ABF2A45
:102572007608F4070318F50A7708F5070130031007
:10258200F60DF70DFF3E031DC02A0310F80C780864
:10259200031DCC2ACD2AB52A7508F1007408F00073
:1025A20008008316031388012730F400F530F30086
:1025B200F30BD92AF40BD92A02300A168A115723AF
:1025C2000A168A1128300A168A1157230A168A1106
:1025D20001300A168A1157230A168A110C300A167C
:1025E2008A1157230A168A1106300A168A115723AE
:1025F2000A168A110800F900023079020318022B28
:10260200032B102B75080F398038F8007808FA0070
:102612007A080A168A1157230A168A111C2B750882
:102622000F39C038F8007808FA007A080A168A11B9
:1026320057230A168A117608F3007708F4000A165F
:102642008A1185220A168A1108000A168A11242282
:102652000A168A11F5018830F6008030F700003042
:102662000A168A11FC220A168A11F001F1010130C0
:102672000A168A1144220A168A113330FD00BB3031
:10268200FC00DF30FB00FB0B442BFC0B442BFD0B4F
:10269200442B4B2B0A168A1124220A168A118316FE
:1026A2000313E70183120313EE010800F200F03076
:1026B2007205F0008312031308080F3970048800B2
:1026C2000810881400008312031388100330F100ED
:1026D2009730F000F00B6B2BF10B6B2B702B720809
:1026E200F00004300310F00DFF3E031D732B831224
:1026F200031308080F39700488008814000083123D
:10270200031388100830F100C930F000F00B872B5A
:10271200F10B872B8C2B0800F200F0307205F000D1
:102722008312031308080F397004880008148814F0
:1027320000008312031388100330F1009730F00079
:10274200F00BA12BF10BA12BA62B7208F000043089
:102752000310F00DFF3E031DA92B8312031308087B
:102762000F39700488008814000083120313881044
:102772000830F100C930F000F00BBD2BF10BBD2B7E
:10278200C22B0800780879040319C82BC92BF82B2F
:10279200FD01FD0AD72B01300310F80DF90DFF3EA4
:1027A200031DCD2B0130FC007C08FD07F91FDA2B3D
:1027B200DB2BCC2B79087B02031DE12B78087A02F4
:1027C200031CE42BE52BEB2B7808FA027908031C97
:1027D200FB03FB0201300310F90CF80CFF3E031D52
:1027E200EC2B0130FD02031DF72BF82BDB2B7B08B2
:1027F200F9007A08F8000800F501F6017008710482
:102802000319042C052C3C2CF701F70A132C013078
:102812000310F00DF10DFF3E031D092C0130F400F1
:102822007408F707F11F162C172C082C013003101F
:10283200F50DF60DFF3E031D182C71087302031DE2
:10284200242C70087202031C272C282C2F2C7008B1
:10285200F2027108031CF303F30275140130031032
:10286200F10CF00CFF3E031D302C0130F702031D6A
:102872003B2C3C2C172C7608F1007508F000080060
:10288200F500762C750884008317000803194A2C7A
:102892004B2C5B2C700884000A168A110A200A1637
:1028A2008A11F300750884000008730603195A2C74
:1028B2005B2C6E2C700884000A168A110A200A16F4
:1028C2008A11F300750884000008F400730874028A
:1028D200F000F101031CF103862C0130F3007308B0
:1028E200F5070130F3007308F0070130F102003000
:1028F200031CF203F202710A031D832C720A031DE8
:10290200832C842C432CF001F10108000030700567
:10291200F80000307105F90080307205FA007F304E
:102922007305FB007B087A0479047804031D9A2C52
:102932009B2CA32C0030F3000030F2000030F10099
:102942000030F00000307405F80000307505F90021
:1029520080307605FA007F307705FB007B087A0429
:1029620079047804031DB62CB72CBF2C0030F70075
:102972000030F6000030F5000030F40077087306EE
:10298200031DCD2C76087206031DCD2C7508710629
:10299200031DCD2C740870060319D02CD12CD32C16
:1029A2000310D42C03140800831203132308F3002A
:1029B2002208F2002108F1002008F0000030F700A0
:1029C2000030F6000030F5000030F4000A168A11DB
:1029D20087240A168A11031CEF2CF02C012D831276
:1029E20003132408840083138001840A80010030C9
:1029F200A3000030A2000030A1000030A000302D62
:102A02008312031323087F39FC00FD010310FC0D20
:102A1200FD0D240884007C0883138000840A7D084D
:102A22008000220D220D0139FC00FD0124088400E2
:102A32007C088004840A7D08800424088400823093
:102A42008007840F00080318000AFF00FF307F0789
:102A520080008403230880393F38A300A2130800B2
:102A62000A168A1124220A168A11F5017930F60013
:102A72008030F70000300A168A11FC220A168A11E9
:102A820083120313A001A101F001F10101300A1622
:102A92008A1144220A168A110630FD001330FC0006
:102AA200AD30FB00FB0B532DFC0B532DFD0B532DB7
:102AB2005A2DF001F10100300A168A1144220A1639
:102AC2008A110630FD001330FC00AD30FB00FB0B19
:102AD200682DFC0B682DFD0B682D6F2D01308312C4
:102AE2000313A0070318A10A0030A1072108803AA6
:102AF200FF0080307F02031D802D05302002031C61
:102B0200832D842D452D0A168A1124220A168A1134
:102B120083120313EE01EE0A080003108316031357
:102B2200380D390DBA003A08C0004008031D9A2D2D
:102B32009B2DA42D0030B9000030B8000030B70042
:102B42000030B600092E3608BA003708BB00380834
:102B5200BC003908BD001F300310BD0CBC0CBB0CFF
:102B6200BA0CFF3E031DAD2D3A08BE003E08BF0061
:102B7200B817FF30B605FF30B705FF30B805003093
:102B8200B9059630C002C01FC72DC82DE22D4008DE
:102B9200803A973E0318CE2DCF2DD02D9B2D01309C
:102BA2000310B90CB80CB70CB60CFF3E031DD12DA7
:102BB2000130BA003A08C007031DE02DE12DD02DE7
:102BC200F92D20304002031CE72DE82DF42D9B2D1A
:102BD2000130BA000310B60DB70DB80DB90DBA0B1E
:102BE200EB2D0130C0024008031DF82DF92DE92D0F
:102BF2003F080319FD2DFE2D092EB609B709B809A4
:102C0200B909B60A0319B70A0319B80A0319B90AA6
:102C120008007130831603138F0007308700880184
:102C22002330850013308316031788000A168A1191
:102C320009220A168A110A168A11D2220A168A1142
:102C42000A168A1115220A168A110A128A150120F9
:102C52000A168A1100308312031387180130831673
:102C62000313EA000030831203130718013083169E
:102C72000313E9000030831203130719013083168E
:102C82000313E800F501A330F6008030F7000030AE
:102C92000A168A11FC220A168A11153083160313AA
:102CA200DC004B30DB00BD30DA00DA0B562EDB0BDA
:102CB200562EDC0B562E5D2E0A168A1124220A1677
:102CC2008A1183120313EE01831203136E08031D8C
:102CD2006B2E6C2E722E0A128A1567210A168A1121
:102CE200652E6E03031D762E772E7D2E0A128A150F
:102CF2000D200A168A11652E02306E06031D822EE1
:102D0200832E892E0A168A1126230A168A11652E07
:102D120003306E06031D8E2E8F2E952E0A168A11F3
:102D220031250A168A11652E04306E06031D9A2E6D
:102D32009B2E6C2E0A128A1596250A168A11652E6A
:102D42000A128A11002800307005F800003071055F
:102D5200F90080307205FA007F307305FB007B08B2
:102D62007A0479047804031DB72EB82EC02E0030E1
:102D7200F3000030F2000030F1000030F0000030CB
:102D82007405F80000307505F90080307605FA0008
:102D92007F307705FB007B087A0479047804031DF1
:102DA200D32ED42EDC2E0030F7000030F600003097
:102DB200F5000030F400F31FDF2EE02E042F003068
:102DC200F8000030F9000030FA008030FB00700893
:102DD200F8027108031C710FEF2EF02EF90272082F
:102DE200031C720FF52EF62EFA027308031C730FE2
:102DF200FB2EFC2EFB027B08F3007A08F200790816
:102E0200F1007808F000F71F072F082F2C2F003051
:102E1200F8000030F9000030FA008030FB0074083E
:102E2200F8027508031C750F172F182FF902760880
:102E3200031C760F1D2F1E2FFA027708031C770F33
:102E4200232F242FFB027B08F7007A08F60079086B
:102E5200F5007808F4008030F3068030F706770832
:102E62007302031D3E2F76087202031D3E2F750862
:102E72007102031D3E2F740870020318412F422F66
:102E8200442F0310452F03140800F8007808031993
:102E92004B2F4C2F602FF31F4F2F502F602F700995
:102EA200FA007109FB007209FC007309FD00FA0ABD
:102EB2000319FB0A0319FC0A0319FD0A682F730898
:102EC200FD007208FC007108FB007008FA0073082C
:102ED200720471047004031D6F2F702F792F00305C
:102EE200F3000030F2000030F1000030F000FF2F5C
:102EF2009630F4007408F9008B2F0130F400740846
:102F0200F90701300310FD0CFC0CFB0CFA0CFF3E20
:102F1200031D832FFE307D05031D902F912F7E2FE1
:102F2200AD2F0130F4007408F9070130FA070030C0
:102F320003180130FB07003003180130FC07003092
:102F420003180130FD0701300310FD0CFC0CFB0CD3
:102F5200FA0CFF3E031DA52FFF307D05031DB22F86
:102F6200B32F922FBF2F0130F9020130F40003106A
:102F7200FA0DFB0DFC0DFD0DF40BB82FFC1BC22F3F
:102F8200C32FC92F023079020318C82FC92FB42FBB
:102F92007918CC2FCD2FD52FFF30FA05FF30FB0546
:102FA2007F30FC05FF30FD050310F90C7908F400B1
:102FB200F501F601F70118300310F40DF50DF60DC9
:102FC200F70DFF3E031DDD2F7408FA047508FB049C
:102FD2007608FC047708FD0478080319F12FF22F14
:102FE200F72FF31FF52FF62FF72FFD177D08F300AC
:0E2FF2007C08F2007B08F1007A08F00008006D
:04400E00D520FF3F7B
:00000001FF
