:020000040000FA
:060000000A128A110C280F
:10000800FE00030EF0000A08F1000A168A117F2983
:100018000A128A110F288317B130FD001130FE0033
:10002800AD30FF00A13084000A168A11C1210A12DE
:100038008A1190308400A1300A128A15DC200A1235
:100048008A118313DC308400ED300A128A15DC2013
:100058000A128A11EF01FA01FB0183010A128A15BB
:10006800E428831203132E088039B8002E08B30041
:100078003307BE00AD1F4128422843283E143E08DE
:1000880003194728482857283E0A031D4C284D289D
:1000980055280030AE000030AD000030AC00003014
:1000A800AB00AD175F280030AE000030AD00003067
:1000B800AC000030AB0032088039FF007F08B8067A
:1000C8003208B3003307B900B11F6B286C286D28BC
:1000D800391439080319712872288128390A031D2F
:1000E800762877287F280030B2000030B100003031
:1000F800B0000030AF00B11789280030B2000030DE
:10010800B1000030B0000030AF00390803198D2865
:100118008E2893283E08031D922893289C28003097
:10012800AE000030AD000030AC000030AB00792BE1
:100138002B08F20031080A168A1173220A128A1152
:10014800730883120313C4007208C3004308B30082
:10015800B401B501B6013608BD003508BC00340845
:10016800BB003308BA004408B300B401B501B601B6
:100178003608C2003508C1003408C0003308BF0083
:100188002C08F20030080A168A1173220A128A1102
:10019800730883120313C4007208C3004308B30032
:1001A800B401B501B6013308BA07340803110318BE
:1001B800013E0319E028BB07350803110318013E67
:1001C8000319E728BC07360803110318013E031971
:1001D800EE28BD074408B300B401B501B6013308E1
:1001E800BF07340803110318013E0319FC28C00790
:1001F800350803110318013E03190329C1073608FE
:1002080003110318013E03190A29C2072D08F20039
:100218002F080A168A1173220A128A117308831288
:100228000313C4007208C3004308B300B401B50146
:10023800B6013308BA07340803110318013E03193D
:100248002629BB07350803110318013E03192D2978
:10025800BC07360803110318013E03193429BD07EA
:100268004408B300B401B501B6013308BF07340828
:1002780003110318013E03194229C0073508031169
:100288000318013E03194929C10736080311031849
:10029800013E03195029C2070830B3000310BA0DF4
:1002A800BB0DBC0DBD0DB30B52292C08F2002F0855
:1002B8000A168A1173220A128A1173088312031309
:1002C800C4007208C3004308B3004408B400B50171
:1002D800B6013308BA07340803110318013E03199D
:1002E8007629BB07350803110318013E03197D2938
:1002F800BC07360803110318013E03198429BD07FA
:100308002B08F20030080A168A1173220A128A1181
:10031800730883120313C4007208C3004308B300B0
:100328004408B400B501B6013308BA07340803110C
:100338000318013E0319A129BB0735080311031847
:10034800013E0319A829BC07360803110318013E0A
:100358000319AF29BD070830B3000310BA0DBB0D50
:10036800BC0DBD0DB30BB1292B08F2002F080A16DE
:100378008A1173220A128A11730883120313C400A4
:100388007208C3004308B3004408B400B501B601BD
:100398003308BA07340803110318013E0319D52995
:1003A800BB07350803110318013E0319DC29BC07F4
:1003B800360803110318013E0319E329BD072C0869
:1003C800F20031080A168A1173220A128A11730878
:1003D80083120313C4007208C3004308B30044081F
:1003E800B400B501B6013308BF0734080311031878
:1003F800013E0319002AC007350803110318013EFE
:100408000319072AC107360803110318013E031907
:100418000E2AC2072D08F20030080A168A11732224
:100428000A128A11730883120313C4007208C300E6
:100438004308B3004408B400B501B6013308BF0748
:10044800340803110318013E03192B2AC007350885
:1004580003110318013E0319322AC1073608031194
:100468000318013E0319392AC2072D08F200310882
:100478000A168A1173220A128A1173088312031347
:10048800C4007208C3004308B3004408B400B501AF
:10049800B60108300310B30DB40DB50DB60DFF3E0F
:1004A800031D4E2A3308BF07340803110318013E01
:1004B80003195F2AC007350803110318013E031901
:1004C800662AC107360803110318013E03196D2A6D
:1004D800C2073A08B3003B08B4003C08B5003D0821
:1004E800B60018300310B60CB50CB40CB30CFF3EB4
:1004F800031D762A3308BF07340803110318013E89
:100508000319872AC007350803110318013E031988
:100518008E2AC107360803110318013E0319952ACC
:10052800C2070830B3000310BA0DBB0DBC0DBD0DDA
:10053800B30B972A3E083907B300B401B40D33084A
:10054800823EC30034080318013EFF3EC400C92A96
:100558000130B3000310BF0DC00DC10DC20DB30BA8
:10056800AE2ABD1FB82AB92ABA2A3F140130B300EF
:100578000310BA0DBB0DBC0DBD0DB30BBC2AFF306B
:10058800C3070318C40AFF30C407C11FCC2ACD2AE9
:10059800AC2AB901BD1FD12AD22AEE2AFF303A056A
:1005A800B300FF303B05B400FF303C05B5007F3099
:1005B8003D05B60036083504340433040319E52A2A
:1005C800E62AE92AB901B90AEE2A3F1CEC2AED2AE3
:1005D800EE2AE62A39080319F22AF32A242B0130D5
:1005E800BF07003003180130C0070030031801307E
:1005F800C107003003180130C207421C042B052B29
:10060800242B3F08B3004008B4004108B500420855
:10061800B6000130B700360DB60CB50CB40CB30CEF
:10062800B70B0F2B3608C2003508C1003408C000CC
:100638003308BF000130C3070318C40A0030C407D9
:100648004408803AFF0080307F02031D2D2BFF30C5
:100658004302031C302B312B3C2B7F3083120313B6
:10066800C2008030C1000030C0000030BF006D2BD8
:10067800831203134408803AFF0080307F02031D71
:10068800472B0130430203184A2B4B2B572B0030C2
:1006980083120313C2000030C1000030C0000030D4
:1006A800BF00B8016D2B831203134308BE00FF304F
:1006B800BF05FF30C0057F30C1050030C2053E1CB4
:1006C800662B672B682BC1173E08B3000310330C49
:1006D800C2003808FF007F08C2044208AE00410883
:1006E800AD004008AC003F08AB00080083120313BC
:1006F8006208803983160313A0008312031362086B
:10070800E700670783160313A20083120313E11F90
:100718008E2B8F2B922B831603132214831603130D
:1007280022080319982B992BAC2B220A031D9D2B09
:100738009E2BA82B003083120313E2000030E10047
:100748000030E0000030DF008312E117E201B62B31
:10075800003083120313E2000030E1000030E000B3
:100768000030DF006608803983160313A1002108D2
:1007780020060319C02BC12BC22B20178312031389
:100788006608E700670783160313A10083120313A3
:10079800E51FCF2BD02BD32B8316031321148316DD
:1007A800031321080319D92BDA2BED2B210A031D7A
:1007B800DE2BDF2BE92B003083120313E600003019
:1007C800E5000030E4000030E3008312E517E6019D
:1007D800F72B003083120313E6000030E5000030E9
:1007E800E4000030E30083160313220821020318F3
:1007F800FE2BFF2B472C201F022C032C072C8030AC
:10080800FF007F08A0062208A3002108A2002308F1
:10081800A100831203135F0883160313A300831236
:1008280003136308DF0083160313230883120313DB
:10083800E300600883160313A300831203136408FC
:10084800E00083160313230883120313E4006108EE
:1008580083160313A300831203136508E1008316AC
:100868000313230883120313E50062088316031396
:10087800A300831203136608E200831603132308F8
:1008880083120313E60083160313A30121088312BE
:100898000313E700E8016808EA0083160313220837
:1008A800831203136702E900031CEA036A08803A0B
:1008B800FF0080307F02031D632C1A306902031C7D
:1008C800662C672CAF2C8312031362086104600442
:1008D8005F04031D702C722C0130732C00308316BA
:1008E8000313A300003083120313E2000030E10079
:1008F8000030E0000030DF00831603132108A20057
:10090800B72C231C882C892C942C230883120313BE
:10091800E7000310670C013883160313A300962C15
:100928000310A30C831203135F1C9B2C9C2C9F2C7D
:1009380083160313A31701308312E700620DE20C3C
:10094800E10CE00CDF0CE70BA22C0130FF007F0864
:1009580083160313A2078316031321082202031C1C
:10096800B62CB72C852C201BBA2CBB2C152D220895
:10097800031DBF2CC02CCB2C003083120313E200C4
:100988000030E1000030E0000030DF00712E8312FB
:1009980003136308DF07640803110318013E0319F2
:1009A800D62CE007650803110318013E0319DD2C56
:1009B800E107660803110318013E0319E42CE20756
:1009C800621CE72CE82CDB2D83160313231CED2C6B
:1009D800EE2CF92C230883120313E7000310670C8D
:1009E800013883160313A300FB2C0310A30C8312F6
:1009F80003135F1C002D012D042D83160313A31769
:100A080001308312E700620DE20CE10CE00CDF0C10
:100A1800E70B072D0130FF007F0883160313A20799
:100A2800DB2D831203136208803AFF006608803AC0
:100A38007F02031D292D65086102031D292D640805
:100A48006002031D292D63085F0203182C2D2D2D2C
:100A5800892DFF30E700FF30E800FF30E900FF3064
:100A6800EA006308EB006408EC006508ED0066081E
:100A7800EE005F08EB026008031C600F442D452D53
:100A8800EC026108031C610F4A2D4B2DED02620830
:100A9800031C620F502D512DEE026B08E7076C08FE
:100AA80003186C0F582D592DE8076D0803186D0FA2
:100AB8005E2D5F2DE9076E0803186E0AEA076A08BB
:100AC800E2006908E1006808E0006708DF0080309C
:100AD800FF007F0883160313A006A309A30A2308AF
:100AE800031D772D782D972D013083120313DF070F
:100AF800003003180130E007003003180130E10727
:100B0800003003180130E207972D6308DF026408FC
:100B1800031C640FE0026508031C650FE102660808
:100B2800031C660FE20283126208610460045F041A
:100B3800031D9F2DA02DD62D831603132308031DF7
:100B4800A62DA72DD62D003083120313E200003006
:100B5800E1000030E0000030DF00712E0130E700D6
:100B68000310DF0DE00DE10DE20DE70BB42D831648
:100B78000313A31FC02DC12DC42D831203135F14AB
:100B880083160313231CC92DCA2DCD2D0314A30DC1
:100B9800CF2D0310A30D22080319D32DD42DD62D44
:100BA8000130A2028312E11FDA2DDB2DB22D83164C
:100BB8000313A101A31FE12DE22DF42D23087F3992
:100BC8000319E72DE82DED2D83160313A101A10AC2
:100BD800F42D831203135F1CF22DF32DF42DE82D51
:100BE8008316031321080319FA2DFB2D332E013028
:100BF80083120313DF07003003180130E0070030C9
:100C080003180130E107003003180130E207621CC5
:100C18000E2E0F2E332E5F08E7006008E8006108EB
:100C2800E9006208EA000130EB006A0DEA0CE90C01
:100C3800E80CE70CEB0B192E6A08E2006908E100E2
:100C48006808E0006708DF0083160313220A031907
:100C58002E2E2F2E332E0130FF007F08A207831679
:100C68000313220A0319392E3A2E3F2E2208031D98
:100C78003E2E3F2E512E003083120313E200003027
:100C8800E1000030E0000030DF0083160313220883
:100C9800031D4F2E502E512EA001221C542E552ECE
:100CA800592E83120313E1175F2E7F30FF007F0850
:100CB80083120313E1058316031322088312031317
:100CC800E7000310670CE20083160313A01F6D2EC4
:100CD8006E2E712E83120313E21708008316031376
:100CE8003708F5003608F4003508F3003408F20038
:100CF8000030F9000030F8000030F7000030F6004E
:100D08000A168A11D1250A128A1103188C2E8D2EE3
:100D18009C2E213083160313DC000030DD000030E8
:100D2800B7000030B6000030B5000030B400B52F71
:100D3800831603133708F5003608F4003508F30066
:100D48003408F2000030F9000030F8000030F700F5
:100D58000030F6000A168A112D240A128A11031C83
:100D6800B62EB72EC62E223083160313DC000030B1
:100D7800DD000030B7000030B6000030B5000030AC
:100D8800B400B52FBF3083120313E2008030E100B6
:100D98000030E0000030DF004030AE000030AD0031
:100DA8000030AC000030AB00B830A8008316031345
:100DB800370883120313A700831603133608831218
:100DC8000313A60083160313350883120313A50023
:100DD80083160313340883120313A4000A168A1116
:100DE8007D240A128A11831203132708B2002608E9
:100DF800B1002508B0002408AF000A128A11352076
:100E08000A128A11831203132E08E6002D08E50042
:100E18002C08E4002B08E3000A128A117A230A122C
:100E28008A1183120313620883160313B70083120F
:100E38000313610883160313B600831203136008B3
:100E480083160313B500831203135F088316031375
:100E5800B400FF30B8070318B90AFF30B9073708DC
:100E6800A7003608A6003508A5003408A4000B30F2
:100E7800A8000830A9000030AA000A128A157221B9
:100E88000A128A11831603132708B7002608B6002A
:100E98002508B5002408B400370883120313E200BC
:100EA80083160313360883120313E1008316031312
:100EB800350883120313E0008316031334088312E2
:100EC8000313DF003F30AE003130AD007230AC00AC
:100ED8001830AB00831603133808F2003908F30002
:100EE8000030F31BFF30F400F50001300A168A11B8
:100EF80075260A128A11750883120313B200740842
:100F0800B1007308B0007208AF000A128A113520C8
:100F18000A128A11831203132E08E6002D08E50031
:100F28002C08E4002B08E3000A128A117A230A121B
:100F38008A1183120313620883160313B7008312FE
:100F48000313610883160313B600831203136008A2
:100F580083160313B500831203135F088316031364
:100F6800B4000800F700EB2F77088400831300080B
:100F78000319BF2FC02FD02F720884000A128A15B8
:100F88000A200A128A11F5007708840000087506FD
:100F98000319CF2FD02FE32F720884000A128A1565
:100FA8000A200A128A11F500770884000008F60062
:100FB80075087602F200F301031CF303FB2F0130DE
:100FC800FF007F08F7070130FF007F08F2070130B4
:100FD800F3020030031CF403F402730A031DF82F14
:100FE800740A031DF82FF92FB82FF201F301080036
:10100000FF1B0A2883137F1883170008840A03191B
:10101000FF0A080008308A000408840A82070034A6
:10102000013400340A34003464340034E8340334C6
:10103000103427340034003400340034C434FF3416
:101040007F343F348034EF34FF34BE349034E134A5
:10105000A9343E34EC3482347634BE348234AD3438
:101060002B343E340E343C34C334BD348734D13455
:1010700013343D3441347834D334BB3430343034D9
:101080003034303430340034533465346E34733497
:101090006F347234203444346934673469347434BE
:1010A00061346C34203441346334743469347634BC
:1010B000613464346F340034543465346D347034C6
:1010C000653472346134743475347234613420346C
:1010D0006D3475347934203461346C347434613453
:1010E0000034693472343D34253464342034683437
:1010F0006C343D342534643420346D3474343D34E0
:1011000025346434003443346C34613476346534CB
:10111000203449346E3463346F347234723465343D
:10112000633474346134003454343D3425346434CD
:101130002034503468343D3425346434203446340B
:101140006C343D3425346434003443346C346134BD
:1011500076346534203443346F34723472346534F9
:101160006334743461340034533469347334203458
:1011700042346C346F3471347534653461346434A2
:101180006F34003450347234653473347334203423
:10119000613420344B3465347934003449346E344E
:1011A000743465346E3474346F3420343234003423
:1011B80064008001840A0406031900340406DD284B
:1011C8007130831603138F000A168A1178210A12C8
:1011D8008A150A168A119C220A128A150A168A1179
:1011E8008E210A128A150A168A11D0210A128A1526
:1011F8000730831603138700880100308312031316
:1012080087180130FA0000300718013083160313DD
:10121800E600003083120313071901308316031305
:10122800E500F701BF30F8008030F90000300A16F9
:101238008A114B220A128A15153083160313DB0014
:101248004B30DA00BD30D900D90B2829DA0B282910
:10125800DB0B28292F290A168A119D210A128A15C3
:10126800FB017B08031D39293A2940290A168A11EE
:101278002F270A128A1535297B03031D442945297E
:101288004B290A168A1151250A128A153529023066
:101298007B06031D5029512957290A168A11C6228F
:1012A8000A128A15352903307B06031D5C295D293E
:1012B80063290A168A11E2230A128A15352904308D
:1012C8007B06031D682969293A290A128A15F1251E
:1012D8000A128A1535290A128A110C288316031353
:1012E8002908AB0001300310AB0DFF3E031D772921
:1012F80003102B0D280784000A128A150A200A12E7
:101308008A15AC000A128A150A200A128A15AD003D
:101318000A128A150A200A128A15AE000A128A15BC
:101328000A200A128A15AF002F08B3002E08B2004F
:101338002D08B1002C08B0003D2AFF30A90703187A
:10134800AA0AFF30AA072908AB0001300310AB0D29
:10135800FF3E031DAA2903102B0D280784000A123B
:101368008A150A200A128A15AC000A128A150A2060
:101378000A128A15AD000A128A150A200A128A155D
:10138800AE000A128A150A200A128A15AF002F0821
:1013980083120313E200831603132E088312031328
:1013A800E100831603132D0883120313E00083164C
:1013B80003132C0883120313DF0083160313330867
:1013C80083120313AE008316031332088312031328
:1013D800AD0083160313310883120313AC00831680
:1013E8000313300883120313AB0083160313270873
:1013F80083120313B2008316031326088312031300
:10140800B10083160313250883120313B000831653
:101418000313240883120313AF000A128A1135201C
:101428000A128A15831203132E08E6002D08E50018
:101438002C08E4002B08E3000A128A117A230A1206
:101448008A1583120313620883160313B3008312E9
:101458000313610883160313B20083120313600891
:1014680083160313B100831203135F088316031353
:10147800B00029082A04031D422A432AA129330857
:10148800A7003208A6003108A5003008A40008000B
:1014980020308400A130F2000408F3001030F4007A
:1014A8007208840083170008F500F20A73088400A4
:1014B800831375088000F30AF40B542A831203136C
:1014C800B001B101B2018312031331083204031DC4
:1014D8006E2A6F2A942AFE3086004230F200F20B00
:1014E800732A0000792A2008B00083120313061E0D
:1014F8007E2A7F2A772A822A2108B000861E852A1A
:10150800862A802A892A2208B000061F8C2A8D2A5A
:10151800872A902A2308B000861F932A942A8E2AA5
:1015280031033204031D992A9A2ABF2AFD30860006
:101538004230F200F20B9E2A0000A42A2408B000D0
:1015480083120313061EA92AAA2AA22AAD2A25084D
:10155800B000861EB02AB12AAB2AB42A2608B000E9
:10156800061FB72AB82AB22ABB2A2708B000861F46
:10157800BE2ABF2AB92A023031063204031DC52A01
:10158800C62AEB2AFB3086004230F200F20BCA2A48
:101598000000D02A2808B00083120313061ED52A9B
:1015A800D62ACE2AD92A2908B000861EDC2ADD2AA6
:1015B800D72AE02A2A08B000061FE32AE42ADE2AEE
:1015C800E72A2B08B000861FEA2AEB2AE52A03300F
:1015D80031063204031DF12AF22A172BF730860050
:1015E8004230F200F20BF62A0000FC2A2C08B00068
:1015F80083120313061E012B022BFA2A052B2D0832
:10160800B000861E082B092B032B0C2B2E08B000CC
:10161800061F0F2B102B0A2B132B2F08B000861F29
:10162800162B172B112B0130B1070318B20A003003
:10163800B2073208803AFF0080307F02031D262B54
:1016480004303102031C292B2A2B672A8312031327
:101658003008080083120313B500B001B10125302A
:10166800AE00092C2530360603193B2B3C2B4C2B9E
:10167800350884003608831780000130FF007F0892
:10168800B5070130B0070318B10A0030B107092CBB
:10169800AF010130A407FF30240784000A128A151D
:1016A8000A200A128A15B600AB00AC012C08003AD1
:1016B80003195F2B092C2B08003A0319192C643ADB
:1016C80003196A2B0D3A03196A2B092C2E0884007A
:1016D80083130008B300840A0008B4000230FF0036
:1016E8007F08AE07B41F792B7A2B832B0330FF00BA
:1016F8007F08AF04B309B409B30A0319B40AB601E1
:10170800B60A3608AB002B07013E84000A128A1578
:101718000A200A128A15AC000A128A150A200A122F
:101728008A15AD002D083402031D9C2B2C083302AA
:1017380003189F2BA02BA12BAB2B0130FF007F0898
:10174800B60705303606031DAA2BAB2B852B2F08B1
:1017580003390319B02BB12BC02B350884002D3069
:10176800831780000130FF007F08B5070130B007FC
:101778000318B10A0030B1073608B200002C0A304D
:10178800A0000030A1003208AB002B07013E840006
:101798000A128A150A200A128A15F2000A128A15F4
:1017A8000A200A128A15F3003408F5003308F400F9
:1017B8000A168A119E230A128A15730883120313C4
:1017C800A3007208A2000A168A1162230A128A1557
:1017D800831203132008303EB6003508840036080B
:1017E800831780000130FF007F08B5070130B0077C
:1017F8000318B10A0030B107FF30FF007F08B207B5
:10180800320A031D082C092CC32B0130A407FF3012
:10181800240784000A128A150A200A128A15B600BB
:101828003608031D182C192C362B3508840083170D
:1018380080013108A5003008A400080083120313B2
:101848004C088039D6004C08CD004D07DD00CB1F71
:101858002E2C2F2C302C5D145D080319342C352CBC
:10186800452C5D0A031D392C3A2C422C0030CC0043
:101878000030CB000030CA000030C900CB17CC01C3
:101888004D2C0030CC000030CB000030CA000030B6
:10189800C90048088039FF007F08D6064808CD00EF
:1018A8004D07DE00C71F592C5A2C5B2C5E145E08AE
:1018B80003195F2C602C702C5E0A031D642C652CA8
:1018C8006D2C0030C8000030C7000030C600003062
:1018D800C500C717C801782C0030C8000030C70001
:1018E8000030C6000030C5004808470446044504D7
:1018F800031D7F2C802C992C0030CC000030CB00AD
:101908000030CA000030C9008030CB047F30CC04DE
:101918005608FF007F08CC044C08C8004B08C700D5
:101928004A08C6004908C500F02D5D08031D9D2C16
:101938009E2CA72C0030C8000030C7000030C6001D
:101948000030C500F02D5D08CD00CE014E08D00056
:101958005E084D02CF00031CD0034F087F3ED7001E
:1019680050080318013E003ED8004C08D5004B082B
:10197800D4004A08D3004908D2000030CC00003017
:10198800CB000030CA000030C9000030DC00003055
:10199800DB000030DA000030D900DE011D2D5E08C2
:1019A8000319D72CD82CF82C0130CD000310D20DF8
:1019B800D30DD40DD50DCD0BDA2C0130CD0003108D
:1019C800C90DCA0DCB0DCC0DCD0BE32CDC1FED2CB6
:1019D800EE2CEF2C49140130CD000310D90DDA0D8F
:1019E800DB0DDC0DCD0BF12C48085502031D062D2F
:1019F80047085402031D062D46085302031D062DF1
:101A080045085202031C092D0A2D192D5C1745089B
:101A1800D2024608031C460FD3024708031C470F8F
:101A2800D4024808031C480FD5020130FF007F0884
:101A3800DE071A305E02031C222D232DD32C5508F5
:101A480054045304520403192A2D2B2D4A2D5914DA
:101A58004A2D0130CD000310C90DCA0DCB0DCC0D98
:101A6800CD0B2F2DDC1F392D3A2D3B2D491401307C
:101A7800CD000310D90DDA0DDB0DDC0DCD0B3D2D9E
:101A8800FF30D7070318D80AFF30D807CB1F4D2DD2
:101A98004E2D2D2DDE01DC1F522D532D6F2DFF30C5
:101AA8005905CD00FF305A05CE00FF305B05CF0049
:101AB8007F305C05D00050084F044E044D040319D4
:101AC800662D672D6A2DDE01DE0A6F2D491C6D2DEE
:101AD8006E2D6F2D672D5E080319732D742DA52D9E
:101AE8000130C907003003180130CA070030031855
:101AF8000130CB07003003180130CC074C1C852D72
:101B0800862DA52D4908CD004A08CE004B08CF00E8
:101B18004C08D0000130D100500DD00CCF0CCE0CA9
:101B2800CD0CD10B902D5008CC004F08CB004E089F
:101B3800CA004D08C9000130D7070318D80A003079
:101B4800D8075808803AFF0080307F02031DAE2D69
:101B5800FF305702031CB12DB22DC02DFF30831268
:101B68000313D7000030D8000030CC000030CB0081
:101B78000030CA000030C900831203135808803AA5
:101B8800FF0080307F02031DCB2D01305702031860
:101B9800CE2DCF2DDC2D83120313D701D8010030B1
:101BA800CC000030CB000030CA000030C900D6019C
:101BB800831203135708DD005D1CE32DE42DE62D89
:101BC800CB17EA2D7F30FF007F08CB055D08CD00DD
:101BD80003104D0CCC008C2C08000030F200F300F0
:101BE8000A168A1104220A128A1573088316031327
:101BF800E3007208E2004E3083160313C500EA3092
:101C0800C400C40B052EC50B052E0000FF3083163B
:101C18000313C4000330C50062084402C700630808
:101C2800031C630A4502C800C901C81BC903490847
:101C3800CA00463083120313CC002030CB00283072
:101C4800CA000030C900831603134A08F500490882
:101C5800F4004808F3004708F20001300A168A1118
:101C680075260A128A15750883120313C8007408AA
:101C7800C7007308C6007208C5000A128A15222414
:101C88000A128A15831203134808E6004708E5007C
:101C98004608E4004508E300C130E2002030E100D6
:101CA8000030E0000030DF000A128A117A230A129D
:101CB8008A1583120313620883160313CE00831256
:101CC8000313610883160313CD00831203136008FE
:101CD80083160313CC00831203135F0883160313C0
:101CE800CB004E0883120313CC00831603134D0850
:101CF80083120313CB00831603134C0883120313B8
:101D0800CA00831603134B0883120313C90041301A
:101D1800C8002030C7000030C6000030C5000A12D5
:101D28008A1522240A128A15831203134808831677
:101D38000313B70083120313470883160313B6006F
:101D480083120313460883160313B5008312031383
:101D5800450883160313B4000A128A1172260A1260
:101D68008A15831603133708D2003608D1003508C0
:101D7800D0003408CF00453083120313CC007F30E5
:101D8800CB00A030CA000030C900831603135208E4
:101D980083120313E60083160313510883120313F7
:101DA800E50083160313500883120313E400831617
:101DB80003134F0883120313E3004130E2005B3042
:101DC800E1009830E000EA30DF000A128A117A2335
:101DD8000A128A15831203136208C8006108C70033
:101DE8006008C6005F08C5000A128A1522240A1274
:101DF8008A1583120313480883160313D600831227
:101E08000313470883160313D500831203134608E8
:101E180083160313D4008312031345088316031390
:101E2800D300560883120313E600831603135508DC
:101E380083120313E5008316031354088312031354
:101E4800E40083160313530883120313E300C3301B
:101E5800E2008830E1008030E0000030DF000A1244
:101E68008A117A230A128A158312031362088316C9
:101E78000313BD0083120313610883160313BC0008
:101E880083120313600883160313BB008312031322
:101E98005F0883160313BA000A168A11D9240A1296
:101EA8008A15831603133B08D8003A08D700013077
:101EB800F2000030F3000A168A1104220A128A1569
:101EC800730883160313E1007208E0004E3083168E
:101ED8000313C500EA30C400C40B702FC50B702F64
:101EE80000000430F2000030F3000A168A110422C0
:101EF8000A128A15730883160313DF007208DE00BE
:101F08004E3083160313C500EA30C400C40B8A2F71
:101F1800C50B8A2F00000A168A119D210A128A15FC
:101F2800853083120313A400831603135808831201
:101F38000313A60083160313570883120313A5007F
:101F480083160313610883120313A800831603136F
:101F5800600883120313A700831603135F08831214
:101F68000313AA00831603135E0883120313A90040
:101F780090300A128A152E230A128A15F70190301A
:101F8800F8000130F90000300A168A114B220A12B3
:101F98008A15831603135808803AFF0080307F02A1
:101FA800031DD82F1F305702031CDB2FDC2FEE2F09
:101FB8000A168A119D210A128A15F7014D30F80078
:101FC8008030F90000300A168A114B220A128A154D
:101FD8000330FB001F3083160313C6007130C500A1
:101FE8001D30C400C40BF62FC50BF62FC60BF62FF9
:081FF800FD2FFB01FB0A0800AC
:1022F0008316031389018316031788010800FC3035
:10230000831203138F0016308E0086090C1071089B
:102310008A00700E8300FE0E7E0E0900F030FF0072
:102320007F08831603138605F030FF007F088604BC
:102330008113831603178901080001300A168A11D8
:10234000F6220A168A110830F600C930F500F50B9E
:10235000A729F60BA729AC290800313432343334CD
:102360004134343435343634423437343834393403
:1023700043342A343034233444347E088A007F08BE
:1023800082000A168A11BD210A168A118000840A69
:1023900004087D0603190034FF0A0319FE0AC12947
:1023A0002330831603138500133083160317880028
:1023B000831603139F171F129F12831203131F0804
:1023C0003F3940389F000800F4007418E829EC29D0
:1023D000831203130914EF298312031309107218CF
:1023E000F229F629831203138914F929831203139E
:1023F00089107318FC29002A831203130915032A74
:10240000831203130911080072080F39F400F40D48
:10241000F40D831203131F087406C33974069F005A
:102420001F141330F400F40B132A162A831203131B
:102430009F149F181C2A1D2A192A1F101E08F3001A
:10244000831603131E08F20008003A2A7608FF00DC
:10245000750884000A128A1500200A168A110A16C5
:102460008A112C230A168A110130F5070318F60A7F
:102470000030F607760883120313FF007508840006
:102480000A128A1500200A168A11003A031D492AE9
:102490004A2A262A080083120313A00002302002D1
:1024A0000318532A542A5F2A77080F398038A1006D
:1024B00021080A168A11F6220A168A11692A770853
:1024C0000F39C038A10021080A168A11F6220A160F
:1024D0008A117808F5007908F6000A168A11252273
:1024E0000A168A11080083120313A400A001A10197
:1024F0007208F400F5017408A2007508A300241CFA
:10250000822A832A892A2208A0070318A10A2308FD
:10251000A10701300310A20DA30DFF3E031D8A2A5F
:102520000310A40C2408031D962A972A7F2A210849
:10253000F3002008F20008008316031388012730F7
:10254000F600F530F500F50BA32AF60BA32A0230AE
:102550000A168A11F6220A168A1128300A168A11DA
:10256000F6220A168A1101300A168A11F6220A1674
:102570008A110C300A168A11F6220A168A110630C0
:102580000A168A11F6220A168A1108000A168A11FA
:102590009D210A168A11F701A530F8008030F90054
:1025A00000300A168A114B220A168A11F201F30131
:1025B00001300A168A11E4210A168A113330831277
:1025C0000313A400BB30A300DF30A200A20BE62A55
:1025D000A30BE62AA40BE62A0A168A119D210A16E5
:1025E0008A1183160313E401FB010800F400F030A4
:1025F0007405F2008312031308080F39720488006F
:102600000810881400008312031388100330F300AD
:102610009730F200F20B0A2BF30B0A2B0F2B7408E6
:10262000F20004300310F20DFF3E031D122B831243
:10263000031308080F3972048800881400008312FD
:10264000031388100830F300C930F200F20B262B78
:10265000F30B262B2B2B0800F400F0307405F2004E
:102660008312031308080F397204880008148814B1
:1026700000008312031388100330F3009730F20038
:10268000F20B402BF30B402B452B7408F200043067
:102690000310F20DFF3E031D482B8312031308089D
:1026A0000F39720488008814000083120313881005
:1026B0000830F300C930F200F20B5C2BF30B5C2BFB
:1026C000612B080083120313200821040319692BCE
:1026D0006A2B992BF901F90A782B01300310A00D10
:1026E000A10DFF3E031D6E2B0130FF007F08F9078F
:1026F000A11F7B2B7C2B6D2B21082302031D822B1A
:1027000020082202031C852B862B8C2B2008A2027A
:102710002108031CA303A30201300310A10CA00C89
:10272000FF3E031D8D2B0130F902031D982B992BC1
:102730007C2B2308A1002208A0000800F601F70165
:10274000720873040319A52BA62BDD2BF801F80AD8
:10275000B42B01300310F20DF30DFF3E031DAA2B25
:102760000130FF007F08F807F31FB72BB82BA92B08
:1027700001300310F60DF70DFF3E031DB92B730852
:102780007502031DC52B72087402031CC82BC92BCC
:10279000D02B7208F4027308031CF503F5027614BB
:1027A00001300310F30CF20CFF3E031DD12B01305E
:1027B000F802031DDC2BDD2BB82B7708F30076081D
:1027C000F200080083120313A001A101F201F3013A
:1027D00001300A168A11E4210A168A110630F9001E
:1027E0001330F800AD30F700F70BF42BF80BF42B97
:1027F000F90BF42BFB2BF201F30100300A168A11BE
:10280000E4210A168A110630F9001330F800AD30C1
:10281000F700F70B092CF80B092CF90B092C102CDD
:10282000013083120313A0070318A10A0030A10787
:102830002108803AFF0080307F02031D212C0530E3
:102840002002031C242C252CE62B0A168A119D211C
:102850000A168A11FB01FB0A080000307205831278
:102860000313A00000307305A10080307405A2009E
:102870007F307505A3002308220421042004031DD2
:10288000422C432C4B2C0030F5000030F40000307B
:10289000F3000030F20000307605A000003077052C
:1028A000A10080307805A2007F307905A3002308BD
:1028B000220421042004031D5E2C5F2C672C0030B1
:1028C000F9000030F8000030F7000030F600790819
:1028D0007506031D752C78087406031D752C770882
:1028E0007306031D752C760872060319782C792C53
:1028F0007B2C03107C2C031408008312031327087D
:10290000F5002608F4002508F3002408F200003042
:10291000F9000030F8000030F7000030F6000A1629
:102920008A112D240A168A11031C972C982CA92C85
:10293000831203132808840083138001840A800112
:102940000030A7000030A6000030A5000030A40031
:10295000D82C8312031327087F39A900AA0103107A
:10296000A90DAA0D28088400290883138000840A71
:102970002A088000260D260D0139A900AA01280881
:10298000840029088004840A2A0880042808840016
:1029900082308007840F00080318000AFF00FF3010
:1029A0007F0780008403270880393F38A700A613DB
:1029B00008000310831603133C0D3D0DC3004308AC
:1029C000031DE32CE42CED2C0030BD000030BC00D6
:1029D0000030BB000030BA00502D3A08BE003B0862
:1029E000BF003C08C0003D08C1001F300310C10CEF
:1029F000C00CBF0CBE0CFF3E031DF62C3E08C200EF
:102A0000BC17FF30BA05FF30BB05FF30BC050030F6
:102A1000BD059630C302C31F0E2D0F2D292D43086F
:102A2000803A973E0318152D162D172DE42C0130F2
:102A30000310BD0CBC0CBB0CBA0CFF3E031D182DC3
:102A40000130FF007F08C307031D272D282D172DF8
:102A5000402D20304302031C2E2D2F2D3B2DE42C26
:102A60000130BE000310BA0DBB0DBC0DBD0DBE0B79
:102A7000322D0130C3024308031D3F2D402D302D60
:102A800042080319442D452D502DBA09BB09BC0934
:102A9000BD09BA0A0319BB0A0319BC0A0319BD0A06
:102AA00008000A168A119D210A168A110030831225
:102AB000031387180130FA0000300718013083161D
:102AC0000313E60000308312031307190130831645
:102AD0000313E500623083120313A4007A08B700E1
:102AE000B8013708A5003808A60083160313660846
:102AF00083120313B900BA013908A7003A08A800E5
:102B000083160313650883120313BB00BC013B0843
:102B1000A9003C08AA0090300A128A152E230A1632
:102B20008A11F7019030F8000130F90000300A16E0
:102B30008A114B220A168A117A030319A02DA12D9E
:102B4000AD2D8316031366030319A72DA82DAD2DF4
:102B50006503031DAC2DAD2DBF2D0A168A119D21D5
:102B60000A168A11F7013530F8008030F90000307C
:102B70000A168A114B220A168A110330FB001F30F5
:102B800083120313B9007130B8001D30B700B70BC2
:102B9000C72DB80BC72DB90BC72DCE2D0430FB00A8
:102BA00008000030720583120313A0000030730583
:102BB000A10080307405A2007F307505A3002308B2
:102BC000220421042004031DE62DE72DEF2D003003
:102BD000F5000030F4000030F3000030F200003067
:102BE0007605A00000307705A10080307805A200AE
:102BF0007F307905A3002308220421042004031D4B
:102C0000022E032E0B2E0030F9000030F8000030A9
:102C1000F7000030F600F51F0E2E0F2E332E003079
:102C2000A0000030A1000030A2008030A300720894
:102C3000A0027308031C730F1E2E1F2EA10274081E
:102C4000031C740F242E252EA2027508031C750F79
:102C50002A2E2B2EA3022308F5002208F4002108B7
:102C6000F3002008F200F91F362E372E5B2E0030BD
:102C7000A0000030A1000030A2008030A300760840
:102C8000A0027708031C770F462E472EA102780872
:102C9000031C780F4C2E4D2EA2027908031C790FCD
:102CA000522E532EA3022308F9002208F80021080F
:102CB000F7002008F6008030F5068030F906790824
:102CC0007502031D6D2E78087402031D6D2E7708A2
:102CD0007302031D6D2E760872020318702E712E7A
:102CE000732E0310742E0314080083120313A00024
:102CF000200803197C2E7D2E912EF51F802E812E0B
:102D0000912E7209A2007309A3007409A400750929
:102D1000A500A20A0319A30A0319A40A0319A50A04
:102D2000992E7508A5007408A4007308A300720802
:102D3000A2007508740473047204031DA02EA12E52
:102D4000AA2E0030F5000030F4000030F30000300F
:102D5000F2002E2F9630A100BA2E0130FF007F081E
:102D6000A10701300310A50CA40CA30CA20CFF3E7C
:102D7000031DB22EFE302505031DBF2EC02EAD2E25
:102D8000DC2E0130FF007F08A1070130A2070030D0
:102D900003180130A307003003180130A4070030E6
:102DA00003180130A50701300310A50CA40CA30CD7
:102DB000A20CFF3E031DD42EFF302505031DE12E7E
:102DC000E22EC12EEE2E0130A1020130F6000310DA
:102DD000A20DA30DA40DA50DF60BE72EA41BF12E3D
:102DE000F22EF82E023021020318F72EF82EE32ED1
:102DF0002118FB2EFC2E042FFF30A205FF30A30567
:102E00007F30A405FF30A5050310A10C2108F600B2
:102E1000F701F801F90118300310F60DF70DF80D60
:102E2000F90DFF3E031D0C2F7608A2047708A304BA
:102E30007808A4047908A50420080319202F212F5D
:102E4000262FF51F242F252F262FA5172508F5003F
:102E50002408F4002308F3002208F200080083127B
:102E60000313EF01F201F30100300A168A11E42185
:102E70000A168A1103308316031364020318412FC4
:102E8000422FFD2F0A168A119D210A168A11F70179
:102E9000B330F8008030F90000300A168A114B2256
:102EA0000A168A11C0300A168A11F6220A168A11E9
:102EB0000A128A154C220A168A1183120313B600CD
:102EC00036080319642F652F772F2A300A168A11C6
:102ED0002C230A168A11831203136F08E73E84001D
:102EE0003608831380000130FF007F08EF070230AF
:102EF00083120313B5000430B400B930B300B30B30
:102F00007F2FB40B7F2FB50B7F2F862F05308312B9
:102F100003136F02031C8D2F8E2F582F2F30F200BA
:102F20000430F3000030F400E7300A128A11B627AB
:102F30000A168A1172087304031D9F2FA02FCE2F2B
:102F40000A168A119D210A168A11F7019630F80097
:102F50008030F90000300A168A114B220A168A11B5
:102F6000F201F20AF30100300A168A11E4210A166E
:102F70008A1183160313E401153083120313B5007D
:102F80004B30B400BD30B300B30BC42FB40BC42F0F
:102F9000B50BC42FCB2FFB01FB0AFF2F0A168A119A
:102FA0009D210A168A11F7017430F8008030F9006B
:102FB00000300A168A114B220A168A11F201F30117
:102FC000F30A00300A168A11E4210A168A11013028
:102FD000FF007F0883160313E407093083120313ED
:102FE000B5001E30B400E330B300B30BF52FB40BC3
:102FF000F52FB50BF52FFC2FFF2F0230FB0008003B
:04400E00D520FF3F7B
:00000001FF
