:020000040000FA
:100000000A128A11E72F00308A000408840A820746
:1000100000343234303432343334393400344334FD
:100020006C34613476346534203449346E3463344E
:100030006F34723472346534633474346134003430
:1000400043346C34613476346534203443346F3453
:10005000723472346534633474346134003441343E
:100060006C346534723474346134203449346E3401
:1000700074347234753473346F34003450347234E1
:100080006534733473342034613420344B34653434
:04009000793400348B
:1008A8008316031389018316031788010800F030A3
:1008B800F0007008831603138605F030F000700806
:1008C80086048113831603178901080001300A1270
:1008D8008A112D250A128A110830F400C930F30054
:1008E800F30B742CF40B742C792C0800313432344B
:1008F800333441343434353436344234373438348C
:10090800393443342A343034233444347E088A005A
:100918007F0882000A128A118A240A128A1180002A
:10092800840A04087D0603190034FF0A0319FE0A25
:100938008E2CF400AF2C740884000A128A1103204C
:100948000A128A110A128A1163250A128A110130C1
:10095800F3007308F407740884000A128A1103204C
:100968000A128A11003A031DBA2CBB2C9F2C0800CE
:10097800F2007218C02CC42C831203130914C72C5C
:100988008312031309107018CA2CCE2C8312031378
:100998008914D12C8312031389107118D42CD82CE4
:1009A800831203130915DB2C8312031309110800A2
:1009B800F800023078020318E22CE32CF02C7508BA
:1009C8000F398038F7007708F90079080A128A1178
:1009D8002D250A128A11FC2C75080F39C038F7002A
:1009E8007708F90079080A128A112D250A128A1146
:1009F80076080A128A119D240A128A1108008316A1
:100A0800031388012730F400F530F300F30B0A2DA7
:100A1800F40B0A2D02300A128A112D250A128A11A6
:100A280028300A128A112D250A128A1101300A1259
:100A38008A112D250A128A110C300A128A112D25C5
:100A48000A128A1106300A128A112D250A128A11F1
:100A58000800F200F0307205F00083120313080852
:100A68000F397004880008108814000083120313DB
:100A780088100330F1009730F000F00B412DF10B96
:100A8800412D462D7208F00004300310F00DFF3E92
:100A9800031D492D8312031308080F3970048800B9
:100AA800881400008312031388100830F100C9303D
:100AB800F000F00B5D2DF10B5D2D622D0800F200AA
:100AC800F0307205F0008312031308080F39700420
:100AD8008800081488140000831203138810033058
:100AE800F1009730F000F00B772DF10B772D7C2D6E
:100AF8007208F00004300310F00DFF3E031D7F2D37
:100B08008312031308080F39700488008814000042
:100B18008312031388100830F100C930F000F00B7D
:100B2800932DF10B932D982D0800F500CE2D750807
:100B38008400831300080319A22DA32DB32D700878
:100B480084000A128A1103200A128A11F300750818
:100B58008400000873060319B22DB32DC62D700842
:100B680084000A128A1103200A128A11F3007508F8
:100B780084000008F40073087402F000F101031CFB
:100B8800F103DE2D0130F3007308F5070130F3009F
:100B98007308F0070130F1020030031CF203F2027F
:100BA800710A031DDB2D720A031DDB2DDC2D9B2D25
:100BB800F001F1010800203084003530F00004080D
:100BC800F1001030F2007008840083130008F3006D
:100BD800F00A7108840073088000F10AF20BE72D0F
:100BE80083120313B001B101B20183120313310858
:100BF8003204031D002E012E2E2EFE3086004230B8
:100C0800F000F00B052E00000D2E2008F0007008F3
:100C1800B00083120313061E122E132E092E182E4F
:100C28002108F0007008B000861E1B2E1C2E142E02
:100C3800212E2208F0007008B000061F242E252E51
:100C48001D2E2A2E2308F0007008B000861F2D2EB6
:100C58002E2E262E31033204031D332E342E612E00
:100C6800FD3086004230F000F00B382E0000402E98
:100C78002408F0007008B00083120313061E452EE6
:100C8800462E3C2E4B2E2508F0007008B000861E1C
:100C98004E2E4F2E472E542E2608F0007008B00016
:100CA800061F572E582E502E5D2E2708F00070086C
:100CB800B000861F602E612E592E02303106320494
:100CC800031D672E682E952EFB3086004230F000FB
:100CD800F00B6C2E0000742E2808F0007008B0008D
:100CE80083120313061E792E7A2E702E7F2E290862
:100CF800F0007008B000861E822E832E7B2E882E70
:100D08002A08F0007008B000061F8B2E8C2E842E47
:100D1800912E2B08F0007008B000861F942E952E97
:100D28008D2E033031063204031D9B2E9C2EC92EB6
:100D3800F73086004230F000F00BA02E0000A82EFD
:100D48002C08F0007008B00083120313061EAD2EA5
:100D5800AE2EA42EB32E2D08F0007008B000861E0B
:100D6800B62EB72EAF2EBC2E2E08F0007008B0009D
:100D7800061FBF2EC02EB82EC52E2F08F0007008F3
:100D8800B000861FC82EC92EC12E0130B107031826
:100D9800B20A0030B2073208803AFF0080307F0282
:100DA800031DD82E04303102031CDB2EDC2EF92D56
:100DB80083120313300808007130831603138F0061
:100DC8000A128A1154240A128A110A128A11032556
:100DD8000A128A110A128A115B240A128A118312D2
:100DE8000313B40103308312031334020318FD2ED6
:100DF800FE2EB62FF001F10100300A128A11BC2430
:100E08000A128A11F5013630FA007A08F600003025
:100E18000A128A11DC240A128A11C0300A128A11B5
:100E28002D250A128A110A128A11DF250A128A113F
:100E3800FA007A0883120313B30033080319252F25
:100E4800262F3A2F2A300A128A1163250A128A118C
:100E5800831203133308FA004508463E84007A08D3
:100E6800831380000130FA007A08C5070230FC00BD
:100E78000430FB00BA30FA00FA0B402FFB0B402F6E
:100E8800FC0B402F00000530831203134502031C9E
:100E98004E2F4F2F172F0130FA007A08F000043038
:100EA800F1000030F20046300A128A1199250A1220
:100EB8008A1170087104031D622F632F802F0A1294
:100EC8008A116A240A128A11F5011830FA007A0880
:100ED800F60000300A128A11DC240A128A11F00185
:100EE800F00AF10100300A128A11BC240A128A1190
:100EF80083120313B401A02F0A128A116A240A125A
:100F08008A11F5010730FA007A08F60000300A1253
:100F18008A11DC240A128A11F001F101F10A003069
:100F28000A128A11BC240A128A1183120313340884
:100F3800013EFA007A08B4001530FC004B30FB0083
:100F4800BE30FA00FA0BA62FFB0BA62FFC0BA62F20
:100F580000000A128A116A240A128A1183120313E2
:100F6800C501F62E0A128A116A240A128A11F5019D
:100F78002730FA007A08F60000300A128A11DC24B9
:100F88000A128A11F001F10101300A128A11BC24F7
:100F98000A128A115230FC002B30FB000030FA0094
:100FA800FA0BD42FFB0BD42FFC0BD42F0000831289
:100FB8000313B4010A128A116A240A128A11F62E3E
:100FC8000A128A11002883134530FD000430FE0000
:100FD8007A30FF00353084000A128A118E240A12F2
:100FE8008A11C501C601C701C801C901CA01CB01DF
:080FF80083010A128A11E02EA8
:04400E00D520FF3F7B
:00000001FF
